:060000000A128A11FC2F18
:100D8600831603138601831203138601013083162B
:100D96000313880087018312031387010818D42ED2
:100DA600D52E672F013086000330F2000830F1009F
:100DB6007730F000F00BDD2EF10BDD2EF20BDD2E81
:100DC60002308312031386000330F2000830F1006C
:100DD6007730F000F00BED2EF10BED2EF20BED2E31
:100DE60004308312031386000330F2000830F1004A
:100DF6007730F000F00BFD2EF10BFD2EF20BFD2EE1
:100E060008308312031386000330F2000830F10025
:100E16007730F000F00B0D2FF10B0D2FF20B0D2F8D
:100E260010308312031386000330F2000830F100FD
:100E36007730F000F00B1D2FF10B1D2FF20B1D2F3D
:100E460020308312031386000330F2000830F100CD
:100E56007730F000F00B2D2FF10B2D2FF20B2D2FED
:100E660040308312031386000330F2000830F1008D
:100E76007730F000F00B3D2FF10B3D2FF20B3D2F9D
:100E860080308312031386000330F2000830F1002D
:100E96007730F000F00B4D2FF10B4D2FF20B4D2F4D
:100EA60083120313860107140330F2000830F100A1
:100EB6007730F000F00B5D2FF10B5D2FF20B5D2FFD
:100EC600831203130710D12E07140330F2000830E3
:100ED600F1007730F000F00B6E2FF10B6E2FF20B56
:100EE6006E2F831203130710803086000330F20042
:100EF6000830F1007730F000F00B7F2FF10B7F2FD9
:100F0600F20B7F2F40308312031386000330F2006A
:100F16000830F1007730F000F00B8F2FF10B8F2F98
:100F2600F20B8F2F20308312031386000330F2005A
:100F36000830F1007730F000F00B9F2FF10B9F2F58
:100F4600F20B9F2F10308312031386000330F2003A
:100F56000830F1007730F000F00BAF2FF10BAF2F18
:100F6600F20BAF2F08308312031386000330F20012
:100F76000830F1007730F000F00BBF2FF10BBF2FD8
:100F8600F20BBF2F04308312031386000330F200E6
:100F96000830F1007730F000F00BCF2FF10BCF2F98
:100FA600F20BCF2F02308312031386000330F200B8
:100FB6000830F1007730F000F00BDF2FF10BDF2F58
:100FC600F20BDF2F01308312031386000330F20089
:100FD6000830F1007730F000F00BEF2FF10BEF2F18
:100FE600F20BEF2F831203138601D12E0A128A11F8
:0A0FF600002883010A128A11C32E9D
:08400000FF3FFF3FFF3FFF3FC0
:02400E00FF3F72
:00000001FF
